S00B00004E74692E73726563EE
S11300000C942A000C94AD060C94D6060C94FF06AE
S11300100C9447000C9447000C9447000C94470040
S11300200C9447000C9447000C9447000C94470030
S11300300C9447000C9447000C9447000C94470020
S11300400C94E0040C9447000C9447000C94470073
S11300500C94470011241FBECFE5D8E0DEBFCDBF0E
S113006010E0A0E6B0E0EAE2FFE002C005900D92E5
S1130070A23AB107D9F721E0A2EAB0E001C01D928B
S1130080AC30B207E1F70E94DB040C9493070C94A4
S113009000000E94FA050E9406040C94F502E82F61
S11300A02091FF0030910001409101015091020123
S11300B0AAE0B0E00E948807E0536E0F711D811D15
S11300C0911D6093FF007093000180930101909350
S11300D0020108954F925F926F927F929F92AF9226
S11300E0BF92CF92DF92EF92FF920F931F93CF9321
S11300F0DF930E94000380936400843509F465C291
S113010090ED980F9A3088F48091FE00813021F4AC
S11301100E9430041092FE00809164000E943A0410
S1130120809164000E944F0090C0833439F08D3375
S113013029F08091FC008F5F8093FC008091FC008B
S1130140823018F081E08093FD0080E30E944F002C
S11301506B017C01809164000E943A041091A30019
S113016044E0149FE0011124CC55DF4FC701B601D0
S11301702AE030E040E050E00E945A0728833983A7
S11301804A835B83C1E0C10FC093A3001092FF00B8
S113019010920001109201011092020180916400FA
S11301A0833409F4CFC18D3369F1C091FE00C130AD
S11301B0E1F40E943004609108017091090180917A
S11301C00A0190910B016093A4007093A5008093A1
S11301D0A6009093A700C093A3000E945C048091A2
S11301E064000E943A041092FE008091A200E82F5D
S11301F0F0E0ED5FFE4F9091640090838F5F8093F9
S1130200A200E3C1D091FC00D13069F40E94300413
S113021085E990E00E943C04D093FE001092A30074
S11302201092A20012C0D091FD00D13089F40E9436
S1130230300485E990E00E943C04D093FE001092C3
S1130240A3001092A2001092FD001092FC00BDC108
S11302501092FC001091A20000E0D0E0D11708F049
S113026099C08D2F90E0FC01ED5FFE4F20810111BC
S11302703EC02A32E9F4FC01EE0FFF1FEE0FFF1F10
S1130280EC55FF4F880F991F880F991FDC01A85563
S1130290BF4F2D913D914D915C916081718182811F
S11302A093810E942807608371838283938351C161
S11302B02F3209F06DC09C01220F331F220F331F10
S11302C0D901AC55BF4F7D01F901E855FF4F6D9140
S11302D07D918D919C9120813181428153810E9435
S11302E05A07F701208331834283538332C12B326F
S11302F0F9F4FC01EE0FFF1FEE0FFF1FEC55FF4F4B
S1130300880F991F880F991FDC01A855BF4F4D9185
S11303105D916D917C9180819181A281B381840FE3
S1130320951FA61FB71F80839183A283B38311C136
S11303302D3271F5DC01AA0FBB1FAA0FBB1FAC55F0
S1130340BF4F880F991F880F991FFC01E855FF4F75
S11303504D915D916D917C911397C080D180E28025
S1130360F3804C195D096E097F094D935D936D937C
S11303707C931397EEC08D2FE82FF0E0ED5FFE4FD6
S1130380918190838F5F8113F7CFC1501150D15069
S1130390DF5F64CF0F5F023009F05FCFC090600071
S11303A0B0906100A09062009090630000E0D0E003
S11303B0D11708F09DC08D2F90E0DD24D394DD0E7D
S11303C0FC01ED5FFE4F208101111FC02C118EC076
S11303D0FC01EE0FFF1FEE0FFF1FEC55FF4F880FC0
S11303E0991F880F991FDC01A855BF4F2D913D918E
S11303F04D915C9160817181828193810E94280773
S11304006083718382839383C3C00130F9F42B1119
S11304106DC09C01220F331F220F331FA9014C55BD
S11304205F4F7A01F901E855FF4FDA016D917D9133
S11304308D919C9120813181428153810E945A0780
S1130440F7012083318342835383A2C00230E9F44D
S11304502A114CC0FC01EE0FFF1FEE0FFF1FEC55DD
S1130460FF4F880F991F880F991FDC01A855BF4FB4
S11304704D915D916D917C9180819181A281B38137
S1130480840F951FA61FB71F21C029112FC0FC017F
S1130490EE0FFF1FEE0FFF1FEC55FF4F880F991F44
S11304A0880F991FDC01A855BF4F4081518162819B
S11304B073818D919D910D90BC91A02D2A013B01DA
S11304C0481A590A6A0A7B0AD301C20180839183BC
S11304D0A283B3835DC0ED2FF0E0ED5FFE4F818119
S11304E08083DF5F1D13F7CFC1501150DD2D60CF26
S11304F00F5F043009F05BCFC093A3001093A200F8
S11305008091A4009091A500A091A600B091A700AD
S11305108093080190930901A0930A01B0930B0101
S113052060E081E00E9448046091A4007091A500FD
S11305308091A6009091A7000E945C0481E08093C2
S1130540FE0002C00E9430041092A3001092A20088
S11305503CC021E02D0F2C1708F00DCF822F90E026
S1130560FC01EE0FFF1FEE0FFF1FE855FF4F408108
S1130570518162817381880F991F880F991FFC0133
S1130580EC55FF4F40835183628373832F5FE3CF26
S11305908D2D8C1708F09FCFE82FF0E0DF01AA0F14
S11305A0BB1FAA0FBB1FA855BF4F4D915D916D9105
S11305B07C91EE0FFF1FEE0FFF1FEC55FF4F4083A2
S11305C05183628373838F5FE4CFDF91CF911F9157
S11305D00F91FF90EF90DF90CF90BF90AF909F90DE
S11305E07F906F905F904F900895CF93C2E161E048
S11305F08C2F0E940D06CF5FC631C9F7CF910895A5
S1130600AF92BF92CF92DF92EF92FF920F931F931C
S1130610CF93DF9300E010E034E5D32E82E1C82EBF
S1130620C00E60E08C2D0E940D06C0E0D0E0B12C1D
S1130630C801880F991F880F991F9C012B573F4FA2
S11306407901C130D10501F1AC2E3BE1A30E8A2D15
S11306500E94900681111AC0FE01EB19F109EE0DFA
S1130660FF1DD0808FE39CE90197F1F700C00000E3
S11306708A2D0E9490068823D9F38FE39CE9019781
S1130680F1F700C0000002C0BB24B3942196C5302A
S1130690D105B9F661E08C2D0E940D060F5F1F4F46
S11306A00430110509F0BACF8D2DDF91CF911F9140
S11306B00F91FF90EF90DF90CF90BF90AF9008958F
S11306C0CF93C82F60E083E00E940D06C4FB662729
S11306D060F988E00E940D06C5FB662760F989E091
S11306E00E940D06C6FB662760F98AE00E940D068B
S11306F06C2F661F6627661F8CE00E940D0661E062
S113070082E00E940D068FE99FE00197F1F700C097
S1130710000060E082E00E940D066C2F617088E0AA
S11307200E940D06C1FB662760F989E00E940D0650
S1130730C2FB662760F98AE00E940D06C3FB6627A8
S113074060F98CE00E940D0661E082E00E940D06D3
S11307508FE99FE00197F1F700C0000060E082E0BC
S1130760CF910C940D06CF93C82F61E083E00E94D3
S11307700D06C4FB662760F988E00E940D06C5FBE0
S1130780662760F989E00E940D06C6FB662760F9BA
S11307908AE00E940D066C2F661F6627661F8CE098
S11307A00E940D0661E082E00E940D068FE99FE041
S11307B00197F1F700C0000060E082E00E940D069E
S11307C06C2F617088E00E940D06C1FB662760F9FA
S11307D089E00E940D06C2FB662760F98AE00E9448
S11307E00D06C3FB662760F98CE00E940D0661E0EC
S11307F082E00E940D068FE99FE00197F1F700C0A7
S1130800000060E082E0CF910C940D062FEF80E7AA
S113081092E0215080409040E1F700C0000082E067
S11308200E94600388E20E9460038FE99FE00197C1
S1130830F1F700C000008CE00E9460038FE99FE0A4
S11308400197F1F700C0000081E00E9460038FE38C
S11308509FE10197F1F700C0000086E00C9460036B
S113086081E00E9460038FE39FE10197F1F700C0EC
S1130870000008950C94B303CF93DF93EC018991A6
S1130880882319F00E94B303FACFDF91CF91089522
S1130890982F862F911102C080580BC0913011F40B
S11308A0805407C0923011F48C5603C0933019F46D
S11308B08C520C94600308954F925F926F927F92D2
S11308C0AF92BF92CF92DF92EF92FF921F93CF939A
S11308D0DF93CDB7DEB7A0970FB6F894DEBF0FBE97
S11308E0CDBF6B017C0197FF12C08DE20E94B30360
S11308F0F094E094D094C094C11CD11CE11CF11C70
S113090080E02AE0422E512C612C712C09C0672B07
S1130910682B692BA9F780E30E94B30310E01CC085
S113092011E0180FAA24A394B12CAC0EBD1EA80E7E
S1130930B11C87FDBA94C701B601A30192010E94BC
S11309405A07605DF501608369017A01812FC11442
S1130950D104E104F10421F7E1E0F0E0EC0FFD1F24
S1130960E10FF11D17FDFA951082FF24FA94F10EA0
S1130970F7FC0DC0E1E0F0E0EC0FFD1FEF0DF11D01
S1130980F7FCFA9580810E94B303FA94F1CFA09604
S11309900FB6F894DEBF0FBECDBFDF91CF911F918C
S11309A0FF90EF90DF90CF90BF90AF907F906F90CB
S11309B05F904F9008950E9449000E946A00FDCF05
S11309C01F920F920FB60F9211242F933F934F93C0
S11309D05F936F937F938F939F93AF93BF93EF93A3
S11309E0FF93E091F400F091F500309709F0099538
S11309F0FF91EF91BF91AF919F918F917F916F91F3
S1130A005F914F913F912F910F900FBE0F901F90C8
S1130A101895982F9695969596958770613009F458
S1130A209AC008F44BC0623009F0E3C09130B1F0D1
S1130A3028F0923019F1933089F108954AB321E0F6
S1130A4030E0B90102C0660F771F8A95E2F7CB0147
S1130A50942F982B9ABB9BB3809547C047B321E052
S1130A6030E0B90102C0660F771F8A95E2F7CB0127
S1130A70942F982B97BB98B3809549C044B321E039
S1130A8030E0B90102C0660F771F8A95E2F7CB0107
S1130A90942F982B94BB95B380954AC041B321E021
S1130AA030E0B90102C0660F771F8A95E2F7CB01E7
S1130AB0942F982B91BB92B380954BC09130C1F089
S1130AC028F0923031F19330A9F108954AB321E02E
S1130AD030E0B90102C0660F771F8A95E2F7CB01B7
S1130AE08095942F98239ABB9BB389238BBB08953D
S1130AF047B321E030E0B90102C0660F771F8A9541
S1130B00E2F7CB018095942F982397BB98B3892360
S1130B104BC044B321E030E0B90102C0660F771F37
S1130B208A95E2F7CB018095942F982394BB95B3D3
S1130B3089234CC041B321E030E0B90102C0660F03
S1130B40771F8A95E2F7CB018095942F982391BB68
S1130B5092B389234DC09130B9F028F0923031F12D
S1130B609330B1F108954AB321E030E0B90102C0F5
S1130B70660F771F8A95E2F7CB01962F9095942301
S1130B809ABB9BB3892BB2CF47B321E030E0B901C4
S1130B9002C0660F771F8A95E2F7CB01962F9095D6
S1130BA0942397BB98B3892B88BB089544B321E061
S1130BB030E0B90102C0660F771F8A95E2F7CB01D6
S1130BC0962F9095942394BB95B3892B85BB089558
S1130BD041B321E030E0B90102C0660F771F8A9566
S1130BE0E2F7CB01962F9095942391BB92B3892B76
S1130BF082BB08950F931F93CF9305E610E0C0E0E6
S1130C00F80161918F018C2F0E940905CF5FC032DA
S1130C10B9F7CF911F910F910895982F96959695B6
S1130C2096958770662319F06130F1F1089591303B
S1130C3099F028F09230E9F0933041F108954BB3E4
S1130C4021E030E0B90102C0660F771F8A95E2F710
S1130C50CB01809584233BC048B321E030E0B90147
S1130C6002C0660F771F8A95E2F7CB018095842333
S1130C703BC045B321E030E0B90102C0660F771FE5
S1130C808A95E2F7CB01809584233BC042B321E0EF
S1130C9030E0B90102C0660F771F8A95E2F7CB01F5
S1130CA08095842382BB0895913099F028F0923086
S1130CB0E9F0933041F108954BB321E030E0B901FC
S1130CC002C0660F771F8A95E2F7CB01842B8BBB9A
S1130CD0089548B321E030E0B90102C0660F771FE0
S1130CE08A95E2F7CB01842B88BB089545B321E0B4
S1130CF030E0B90102C0660F771F8A95E2F7CB0195
S1130D00842B85BB089542B321E030E0B90102C0D1
S1130D10660F771F8A95E2F7CB01842B82BB089577
S1130D20282F2770869586958695813049F030F076
S1130D30823041F0833079F480B305C089B303C0B5
S1130D4086B301C083B390E002C0959587952A9538
S1130D50E2F7982F9170892F08951F920F920FB682
S1130D600F9211242F933F934F935F936F937F932D
S1130D708F939F93AF93BF93EF93FF93E091FA0008
S1130D80F091FB00309709F00995FF91EF91BF9125
S1130D90AF919F918F917F916F915F914F913F910F
S1130DA02F910F900FBE0F901F9018951F920F92C6
S1130DB00FB60F9211242F933F934F935F936F932A
S1130DC07F938F939F93AF93BF93EF93FF93E091A0
S1130DD0F800F091F900309709F00995FF91EF912F
S1130DE0BF91AF919F918F917F916F915F914F913F
S1130DF03F912F910F900FBE0F901F9018951F9247
S1130E000F920FB60F9211242F933F934F935F933A
S1130E106F937F938F939F93AF93BF93EF93FF93BE
S1130E20E091F600F091F700309709F00995FF91F1
S1130E30EF91BF91AF919F918F917F916F915F914E
S1130E404F913F912F910F900FBE0F901F901895C7
S1130E50DB018F939F930E948807BF91AF91A29F5C
S1130E60800D911DA39F900DB29F900D11240895A4
S1130E70A1E21A2EAA1BBB1BFD010DC0AA1FBB1F9A
S1130E80EE1FFF1FA217B307E407F50720F0A21B0C
S1130E90B30BE40BF50B661F771F881F991F1A9479
S1130EA069F760957095809590959B01AC01BD01A3
S1130EB0CF010895052E97FB1EF400940E9471073C
S1130EC057FD07D00E94380707FC03D04EF40C945A
S1130ED0710750954095309521953F4F4F4F5F4F87
S1130EE0089590958095709561957F4F8F4F9F4F92
S1130EF00895A29FB001B39FC001A39F700D811DEF
S1130F001124911DB29F700D811D1124911D08950E
S1130F100E947907A59F900DB49F900DA49F800D0A
S10D0F20911D11240895F894FFCFE9
S1130F2A2A2F2B2D5400000202020202020202029C
S1130F3A0202020202010202020202020202020185
S1130F4A01020101013738392F3435362A31323357
S1130F5A2D43303D2B73796E746178206572726FFC
S1050F6A72000F
S9030000FC
